:100000000C9463000C948B000C948B000C948B006C
:100010000C948B000C948B000C948B000C94F502C8
:100020000C948B000C948B000C948B000C94F303B9
:100030000C948B000C948B000C948B000C948B0014
:100040000C94A9030C948B000C9477030C9451032B
:100050000C948B000C948B000C948B000C948B00F4
:100060000C948B000C948B000000000024002700EF
:100070002A0000000000250028002B0002000000DC
:100080000800020100000304070000000000000057
:1000900000000000002300260029000404040404DA
:1000A0000404040202020202020303030303030125
:1000B00002040810204080010204081020010204FC
:1000C00008102000F40411241FBECFEFD8E0DEBFDB
:1000D000CDBF11E0A0E0B1E0E8EEFAE102C005908A
:1000E0000D92AA32B107D9F722E0AAE2B1E001C02D
:1000F0001D92AE38B207E1F710E0C3E6D0E004C0CD
:100100002197FE010E946C0DC236D107C9F70E94EB
:1001100059050C94720D0C940000AF92BF92CF92CF
:10012000DF92EF92FF920F931F93CF93DF936C01B7
:100130007B018B01040F151FEB015E01AE18BF0898
:10014000C017D10759F06991D601ED91FC9101904A
:10015000F081E02DC6010995892B79F7C501DF9162
:10016000CF911F910F91FF90EF90DF90CF90BF90B4
:10017000AF90089542E050E067E271E084EB91E0D7
:100180000C948D00FC01538D448D252F30E0842F7D
:1001900090E0821B930B541710F0CF9608950197AF
:1001A0000895FC01918D828D981761F0A28DAE0F9C
:1001B000BF2FB11D5D968C91928D9F5F9F73928F23
:1001C00090E008958FEF9FEF0895FC01918D828D4F
:1001D000981731F0828DE80FF11D858D90E008951C
:1001E0008FEF9FEF0895FC01918D228D892F90E074
:1001F000805C9F4F821B91098F739927089584EB30
:1002000091E00E94F30021E0892B09F420E0822F85
:10021000089580E090E0892B29F00E94FF00811171
:100220000C9400000895FC01A48DA80FB92FB11DF6
:10023000A35ABF4F2C91848D90E001968F7399271C
:10024000848FA689B7892C93A089B1898C918370FA
:1002500080648C93938D848D981306C00288F389F3
:10026000E02D80818F7D80830895EF92FF920F9320
:100270001F93CF93DF93EC0181E0888F9B8D8C8D52
:1002800098131AC0E889F989808185FF15C09FB746
:10029000F894EE89FF896083E889F9898081837009
:1002A000806480839FBF81E090E0DF91CF911F91B8
:1002B0000F91FF90EF900895F62E0B8D10E00F5FD9
:1002C0001F4F0F731127E02E8C8D8E110CC00FB6AF
:1002D00007FCFACFE889F989808185FFF5CFCE0147
:1002E0000E941301F1CFEB8DEC0FFD2FF11DE35AAE
:1002F000FF4FF0829FB7F8940B8FEA89FB898081CA
:100300008062CFCFCF93DF93EC01888D8823B9F043
:10031000AA89BB89E889F9898C9185FD03C0808110
:1003200086FD0DC00FB607FCF7CF8C9185FFF2CF8D
:10033000808185FFEDCFCE010E941301E9CFDF91CF
:10034000CF910895833081F028F4813099F0823084
:10035000A9F008958730A9F08830C9F08430B1F44D
:10036000809180008F7D03C0809180008F77809383
:100370008000089584B58F7784BD089584B58F7DFE
:10038000FBCF8091B0008F778093B000089580916B
:10039000B0008F7DF9CF1F93CF93DF93282F30E0EC
:1003A000F901E358FF4F8491F901E155FF4FD491D2
:1003B000F901E556FF4FC491CC23A9F0162F811106
:1003C0000E94A201EC2FF0E0EE0FFF1FEE58FF4F4E
:1003D000A591B4918FB7F894EC91111108C0D09504
:1003E000DE23DC938FBFDF91CF911F910895DE2B29
:1003F000F8CF9091000189130BC0ECE7F0E0E49195
:100400009FEF90930001E13049F028F0E23061F075
:1004100060E00C94CB0110926E00FACF90916F00C7
:100420009D7F90936F00F4CF909170009D7F90938B
:10043000700091E09093B0009091B100987F94602B
:100440009093B1001092B300E3CFCF93DF9390E08D
:10045000FC01E155FF4F249185569F4FFC0184918B
:100460008823D1F090E0880F991FFC01E859FF4FD5
:10047000A591B491FC01EE58FF4FC591D491611143
:100480000EC09FB7F8948C91E22FE0958E238C9349
:100490002881E223E8839FBFDF91CF9108958FB732
:1004A000F894EC91E22BEC938FBFF6CF3FB7F89422
:1004B0008091300190913101A0913201B0913301CE
:1004C00026B5A89B05C02F3F19F00196A11DB11DAF
:1004D0003FBFBA2FA92F982F8827BC01CD01620FEB
:1004E000711D811D911D42E0660F771F881F991FA6
:1004F0004A95D1F708958F929F92AF92BF92CF9273
:10050000DF92EF92FF924B015C010E9456026B0159
:100510007C010E9456026C197D098E099F09683E74
:10052000734081059105A8F321E0821A9108A10882
:10053000B10888EEC80E83E0D81EE11CF11C8114BE
:100540009104A104B10429F7FF90EF90DF90CF90C0
:10055000BF90AF909F908F900895FC01EE0FFF1F0A
:10056000E856FE4F20813181232B39F421E030E021
:100570003183208361E00C9425020895682F84EB79
:1005800091E00C9435018FEF0E94BE0285E50E9438
:10059000BE020C94BA000F931F93CF93DF938B018D
:1005A000D82FC92F82E00E94BE02C801AD2FBC2FF8
:1005B00080932A0190932B01A0932C01B0932D01DD
:1005C0000E94BE02812F0E94BE028D2F0E94BE0299
:1005D0008C2FDF91CF911F910F910C94BE028FEF62
:1005E0000E94BE0285E50C94BE021F920F920FB6C8
:1005F0000F9211242F933F934F935F936F937F93A9
:100600008F939F93AF93BF93EF93FF9380913B01A1
:1006100090913C01A0913D01B0913E01892B8A2B24
:100620008B2BD1F190913601E0913701F091380197
:1006300080818927808380913B0190913C01A0912A
:100640003D01B0913E01181619061A061B069CF4CE
:1006500080913B0190913C01A0913D01B0913E0100
:100660000197A109B10980933B0190933C01A093AC
:100670003D01B0933E01FF91EF91BF91AF919F91EA
:100680008F917F916F915F914F913F912F910F903B
:100690000FBE0F901F901895809100010E94F901E4
:1006A000EACF1F920F920FB60F9211242F933F9310
:1006B0004F935F936F937F938F939F93AF93BF936A
:1006C000EF93FF9384EB91E00E941301FF91EF9170
:1006D000BF91AF919F918F917F916F915F914F915A
:1006E0003F912F910F900FBE0F901F9018951F9262
:1006F0000F920FB60F9211242F938F939F93EF9326
:10070000FF93E091C401F091C5018081E091CA019D
:10071000F091CB0182FD1BC090818091CD018F5F54
:100720008F732091CE01821741F0E091CD01F0E06E
:10073000EC54FE4F958F8093CD01FF91EF919F91E7
:100740008F912F910F900FBE0F901F901895808161
:10075000F4CF1F920F920FB60F9211242F933F9355
:100760008F939F93AF93BF938091570190915801BE
:10077000A0915901B0915A0130912F0123E0230F2C
:100780002D3758F50196A11DB11D20932F0180939F
:10079000570190935801A0935901B0935A01809149
:1007A000300190913101A0913201B0913301019655
:1007B000A11DB11D8093300190933101A0933201AE
:1007C000B0933301BF91AF919F918F913F912F9142
:1007D0000F900FBE0F901F90189526E8230F0296DA
:1007E000A11DB11DD2CF1F920F920FB60F921124EF
:1007F0002F933F934F935F936F937F938F939F9329
:10080000AF93BF93CF93DF93EF93FF9380912E012C
:10081000C0917502D0E087FF24C01092850010922D
:10082000840080912E018F5F80932E0180912E0194
:10083000082E000C990B8C179D0724F480912E0133
:100840008C30C4F1809184009091850004968034AE
:100850009C4908F47AC080918400909185000496A8
:1008600076C080912E01082E000C990B8C179D07E5
:10087000C4F6E0912E018E2FEE0F990BFC01EE0FC6
:10088000FF1FE80FF91FEF5AFD4F808186FFC9CF88
:10089000E0912E018E2FEE0F990BFC01EE0FFF1F42
:1008A000E80FF91FEF5AFD4F808160E08F730E94BF
:1008B000CB01B7CF2091840030918500E0912E01CB
:1008C0008E2FEE0F990BFC01EE0FFF1FE80FF91FA3
:1008D000EF5AFD4F81819281820F931F909389007F
:1008E00080938800E0912E018E2FEE0F990BFC0172
:1008F000EE0FFF1FE80FF91FEF5AFD4F808186FFB3
:1009000011C0E0912E018E2FEE0F990BFC01EE0F1E
:10091000FF1FE80FF91FEF5AFD4F808161E08F73D1
:100920000E94CB01FF91EF91DF91CF91BF91AF91E9
:100930009F918F917F916F915F914F913F912F91F7
:100940000F900FBE0F901F90189580E49CE9909334
:100950008900809388008FEF80932E01E3CFCF92A0
:10096000DF92EF92FF920F931F93E82FF92F05C0AC
:10097000015011092109310961F1908196239417E1
:10098000B9F305C0015011092109310911F1908114
:1009900096239413F7CFC12CD12CE12CF12C0AC053
:1009A0008FEFC81AD80AE80AF80A0C151D052E059B
:1009B0003F0579F080818623841791F36C2D7D2D7E
:1009C0008E2D9F2D1F910F91FF90EF90DF90CF9074
:1009D000089560E070E080E090E01F910F91FF903B
:1009E000EF90DF90CF9008951092B7011092B6016A
:1009F00088EE93E0A0E0B0E08093B8019093B90155
:100A0000A093BA01B093BB0189E191E09093B50145
:100A10008093B40185EC90E09093C1018093C00174
:100A200084EC90E09093C3018093C20180EC90E04D
:100A30009093C5018093C40181EC90E09093C7012D
:100A40008093C60182EC90E09093C9018093C80125
:100A500086EC90E09093CB018093CA011092CD0177
:100A60001092CE011092CF011092D001E6E7F2E091
:100A70002EE832E04FEF68EB7BE0809175028C301E
:100A8000B0F491E0980F90937502808390E0DC01C0
:100A9000AA0FBB1FA80FB91FAF5ABD4F12967C9368
:100AA0006E93119733962E173F0739F708954083B9
:100AB000F9CFCF93DF9300D000D0CDB7DEB77894D5
:100AC00084B5826084BD84B5816084BD85B5826053
:100AD00085BD85B5816085BD80916E008160809304
:100AE0006E0010928100809181008260809381006D
:100AF000809181008160809381008091800081607D
:100B0000809380008091B10084608093B1008091D7
:100B1000B00081608093B00080917A0084608093FF
:100B20007A0080917A00826080937A0080917A00C6
:100B3000816080937A0080917A00806880937A0047
:100B40001092C100E091C401F091C50182E0808360
:100B5000E091C401F091C5011082E091C001F091D3
:100B6000C1011082E091C201F091C30180E1808354
:100B70001092CC01E091C801F091C90186E0808318
:100B8000E091C601F091C701808180618083E0918E
:100B9000C601F091C701808188608083E091C60121
:100BA000F091C701808180688083E091C601F09157
:100BB000C70180818F7D8083198261E089810E94D5
:100BC000250260E089810E94CB0129812F5F298362
:100BD0002E3099F768EC70E080E090E00E947B0294
:100BE00022242394312C84EB91E00E94F3009A8319
:100BF0008983892B09F457C484EB91E00E94F300A8
:100C00001816190684F784EB91E00E94D1009091A8
:100C10009201853509F064C0911162C08091910103
:100C20008F3F29F431E0309390013093920180910D
:100C300090018F5F843308F06BC0809390018091A6
:100C40009201882381F280918F018111CCCF809114
:100C50009001843040F21092920120916001D09076
:100C60006101ED2CF12C30915F01323009F489C023
:100C7000333009F4A6C0313009F05FC0273009F0E5
:100C80005FC080916201898390E0209197012111DA
:100C900044C030939701F0920401E09203019093D5
:100CA000020180930101F701EE0FFF1FE856FE4F8E
:100CB00031822082880F991FFC01E856FE4F318255
:100CC000208261E08D2D0E94250260E089810E94D2
:100CD000250262E370E080E090E00E947B022DC07C
:100CE00080939101992309F4A2CFE0919001E23021
:100CF00039F480938F01F0E0E55AFE4F808397CF5F
:100D0000E330C8F390918F01915090938F01F3CF0E
:100D1000109290011092920192CF20910301309194
:100D20000401E216F30609F0B6CF209101013091DB
:100D300002018217930709F0AECF1092900153CFB2
:100D40002091030130910401C701880F991FE21619
:100D5000F30639F02091010130910201E216F30609
:100D600051F41092970110929301109294011092F5
:100D700095011092960188569E4FFC0111821082B7
:100D8000DCCF8091030190910401E816F90639F057
:100D90008091010190910201E816F90651F4109238
:100DA0009701109293011092940110929501109264
:100DB0009601243009F4ACC23CF42130B1F0233068
:100DC000E9F00E94C302B9CF253009F478C0283079
:100DD000C1F72FB7F8948091570190915801A091D5
:100DE0005901B0915A012FBFECCFC7010E94AD024B
:100DF000609162018D2D0E94CB01E3CFC7010E945B
:100E0000AD0210916201212F30E03A83298361E025
:100E10008D2D0E942502111102C060E0EBCF898167
:100E20009A818F3F910511F461E0E4CFF701E35817
:100E3000FF4FE491E33039F150F4E130D1F0E2308A
:100E4000E9F089819A818038910574F7E6CFE7301F
:100E500031F1E83061F1E430A1F7809180008062E7
:100E60008093800029813A8130938B0020938A00FF
:100E7000A8CF84B5806884BD17BDA3CF84B5806238
:100E800084BD18BD9ECF80918000806880938000D3
:100E9000E981FA81F0938900E093880092CF8091F4
:100EA000B00080688093B0001093B3008ACF809127
:100EB000B00080628093B0001093B40082CFC7016D
:100EC0000E94AD02809162018093340180916301A0
:100ED00080933501E0913401F0913501FC83EB837F
:100EE0008091640180933401809165018093350184
:100EF00020913401309135013A832983121613066B
:100F00000CF002C2809100018D11CDC0ECE7F0E041
:100F1000149117FD56CF61E08D2D0E9425021123FB
:100F2000B1F02B813C814901B12CA12C60E072E130
:100F30008AE790E0A5010E94980C69017A0181E09E
:100F4000C81AD108E108F108123009F09AC1EB8102
:100F5000FC814F01B12CA12C60E072E18AE790E0A6
:100F6000A5019F010E94980C29013A017A016901AB
:100F7000F1E0CF1AD108E108F1082FEFC216D10431
:100F8000E104F10409F00CF44FC160E472E48FE075
:100F900090E0A50194010E94980C69017A0181E01A
:100FA000C81AD108E108F108123009F0F4C082E053
:100FB0009FEFC916D104E104F10409F00CF46CC0F0
:100FC00060E970ED83E090E0A50194010E94980C27
:100FD00069017A01E1E0CE1AD108E108F10883E065
:100FE000FFEFCF16D104E104F10409F00CF454C072
:100FF00068E478EE81E090E0A50194010E94980CED
:1010000069017A0181E0C81AD108E108F10884E099
:101010009FEFC916D104E104F104F1F1ECF164E2AF
:1010200074EF80E090E0A50194010E94980C6901A2
:101030007A0191E0C91AD108E108F10885E03FEF93
:10104000C316D104E104F10439F130F162E17AE729
:1010500080E090E0A50194010E94980C69017A015A
:10106000E1E0CE1AD108E108F10886E0FFEFCF16E3
:10107000D104E104F10481F078F0730162012AE007
:10108000F594E794D794C7942A95D1F721E0C21A32
:10109000D108E108F10887E09091B100987F892B91
:1010A0008093B100C8C08F3F09F08BCED092000171
:1010B000ECE7F0E014911F3F09F483CE113031F1D9
:1010C00050F0123009F442C017FD7BCE61E08D2D47
:1010D0000E94250226CF14BC15BC84B5826084BD55
:1010E00085B5816085BDF701E556FF4FE491F0E0DD
:1010F000EE0FFF1FEE58FF4F85919491F701E155D8
:10110000FF4FE491E0933A0110E005CF1092800088
:10111000109281008091810088608093810080918D
:101120008100816080938100F701E556FF4FE491D3
:10113000F0E0EE0FFF1FEE58FF4F85919491F701FD
:10114000E155FF4FE491E0933901E5CE1092B000F4
:101150001092B1008091B00082608093B0008091C5
:10116000B10081608093B100F701E556FF4FE49133
:10117000F0E0EE0FFF1FEE58FF4F85919491909392
:10118000380180933701F701E155FF4FE491E09377
:10119000360112E0C0CE2FEFC216D104E104F104F3
:1011A00009F00CF46CC068E478EE81E090E0A501F1
:1011B00094010E94980C69017A0181E0C81AD10853
:1011C000E108F10884E011113ACF83E02FEFC21655
:1011D000D104E104F10459F154F162E17AE780E0CD
:1011E00090E0A50194010E94980C69017A01E1E068
:1011F000CE1AD108E108F10884E0FFEFCF16D10440
:10120000E104F104A1F098F0730162019AE0F59411
:10121000E794D794C7949A95D1F731E0C31AD108CF
:10122000E108F10885E003C081E0111135CF95B5E3
:10123000987F892B85BD2B813C81220F331FA9818B
:10124000BA810E94650D28EE33E040E050E00E9434
:10125000C20C1130B9F1123009F446C01111B1CDF0
:10126000C7BC209343013093440140934501509300
:10127000460180916E00826080936E00A2CD82E074
:10128000D4CF91E0C114D10421E0E206F10484F04E
:1012900068E478EE81E090E0A50194010E94980C4A
:1012A00069017A0181E0C81AD108E108F10893E0E8
:1012B000113009F0C0CF80918100887F892B809305
:1012C0008100B9CFD0928900C092880020933F015D
:1012D00030934001409341015093420180916F004F
:1012E000826080936F006DCDC092B30020933B016C
:1012F00030933C0140933D0150933E01809170003A
:101300008260809370005DCD8D2D0E94F90159CDD2
:10131000C7010E94AD0200916201053B08F051CD6A
:10132000E7E4F1E090E080E021913191E216F306EC
:1013300051F0232B09F0AFC0FC01EE0FFF1FE95B5A
:10134000FE4FF182E0829C01220F331F820F931F18
:10135000FC01EA58FD4F1081818192811C3008F018
:101360003FC061E08D2D0E942502812F90E0AC01ED
:10137000440F551FFA01E80FF91FEF5AFD4F2D2DAD
:101380002F73D22E2081207CD22AD08230E020E020
:10139000F901EE0FFF1FE20FF31FEF5AFD4F6081BF
:1013A00066FD14C02F5F3F4F2C30310589F7109236
:1013B000800022E02093810010928500109284002A
:1013C000B19A20916F00226020936F00840F951FC7
:1013D000FC01EF5AFD4F80818064808390E080E0C3
:1013E0001C3008F0EECCE8E5EE2EE2E0FE2EE91A25
:1013F000F10897FDF394EE0CFF1CEE0CFF1CE8E8DF
:10140000F0E0E81BF10987FDF395EE0FFF1FEE0FEB
:10141000FF1FFA83E9834F01FF0FAA08BB0897015A
:101420000F2C000C440B550B281939094A095B098C
:10143000A02FB0E00E94B70C24EB30E040E050E079
:101440000E94980C820E931EA41EB51E29813A811B
:10145000821693063CF0FA82E9828E149F0414F4FB
:101460009A82898289819A810297880F991F9A832B
:1014700089834FB7F894212F30E0C901880F991F55
:10148000820F931FFC01EF5AFD4F29813A8132836D
:1014900021834FBF96CC01968830910509F044CF47
:1014A00090E080E050CF6FE070E080E090E00E943C
:1014B0007B0258E9E52E51E0F52EF70101911191DB
:1014C0007F010115110509F03DC0B98060E08B2D49
:1014D0000E9425020E94EF02E981FA81E358FF4F42
:1014E0008491E981FA81E155FF4FC490E981FA8145
:1014F000E556FF4FD490DD2099F081110E94A201A2
:10150000ED2DF0E0EE0FFF1FEF56FF4FA591B491C8
:10151000EC91CE2291E080E009F490E0092F182FA1
:10152000B801110F880B990B0E947B0B0E94CB0214
:101530008B2D0E94BE0281E00E94BE020E94BA0072
:101540000E94C30229813A812F5F3F4F3A8329834A
:101550002E30310509F0B1CF85E091E09A8389837F
:1015600010E0E981FA8181919191FA83E983892BD5
:1015700039F50E94EF02812F806480937C00809176
:101580007A00806480937A0080917A0086FDFCCF97
:101590008091780060917900762F682F072E000CDB
:1015A000880B990B0E947B0B0E94CB02812F0E941B
:1015B000BE0282E00E94BE020E94BA000E94C302E4
:1015C0001F5F183071F680919701882309F470C06D
:1015D000F0910301F98360E08F2F0E94CB0183E03B
:1015E00090E00197F1F761E089810E94CB0183E2ED
:1015F00090E00197F1F760E089810E94CB01809132
:101600000101909102019927FC01E155FF4F64917E
:10161000FC01E556FF4FE491F0E0EE0FFF1FEF569F
:10162000FF4F8591949100E315E720E030E0462FCD
:101630000E94AF04611571058105910529F06F5F66
:101640007F4F8F4F9F4F9F700E94790B20E030E0BB
:1016500048EE51E40E94F30C20E030E040E05FE30C
:101660000E94DA0B6B017C0120E030E0A9010E94AE
:10167000740B811130C0C0909301D0909401E09020
:101680009501F09096010E94EF02C701B6010E94F9
:10169000CB02809103010E94BE02809101010E9451
:1016A000BE0287E00E94BE020E94BA000E94C302EE
:1016B0006AE070E080E090E00E947B0280E090E0D1
:1016C000892B09F48DCA0E94FF00882309F488CA77
:1016D0000E94000085CAC0929301D0929401E092CA
:1016E0009501F0929601CFCF0E94B60B08F481E0ED
:1016F0000895E89409C097FB3EF490958095709505
:1017000061957F4F8F4F9F4F9923A9F0F92F96E94D
:10171000BB279395F695879577956795B795F111C2
:10172000F8CFFAF4BB0F11F460FF1BC06F5F7F4F5F
:101730008F4F9F4F16C0882311F096E911C0772371
:1017400021F09EE8872F762F05C0662371F096E87A
:10175000862F70E060E02AF09A95660F771F881F49
:10176000DAF7880F9695879597F90895990F0008ED
:10177000550FAA0BE0E8FEEF16161706E807F90763
:10178000C0F012161306E407F50798F0621B730BFE
:10179000840B950B39F40A2661F0232B242B252B7F
:1017A00021F408950A2609F4A140A6958FEF811D22
:1017B000811D08950E94ED0B0C945E0C0E94500C4C
:1017C00038F00E94570C20F0952311F00C94470C30
:1017D0000C944D0C11240C94920C0E946F0C70F31D
:1017E000959FC1F3950F50E0551F629FF001729FC6
:1017F000BB27F00DB11D639FAA27F00DB11DAA1FD5
:10180000649F6627B00DA11D661F829F2227B00D21
:10181000A11D621F739FB00DA11D621F839FA00DAC
:10182000611D221F749F3327A00D611D231F849FFC
:10183000600D211D822F762F6A2F11249F57504053
:101840009AF0F1F088234AF0EE0FFF1FBB1F661FCE
:10185000771F881F91505040A9F79E3F510580F097
:101860000C94470C0C94920C5F3FE4F3983ED4F335
:10187000869577956795B795F795E7959F5FC1F73B
:10188000FE2B880F911D9695879597F9089597F9E6
:101890009F6780E870E060E008959FEF80EC089516
:1018A00000240A941616170618060906089500243F
:1018B0000A9412161306140605060895092E0394B9
:1018C000000C11F4882352F0BB0F40F4BF2B11F42D
:1018D00060FF04C06F5F7F4F8F4F9F4F089557FD8C
:1018E0009058440F551F59F05F3F71F04795880F8E
:1018F00097FB991F61F09F3F79F087950895121625
:1019000013061406551FF2CF4695F1DF08C01616D0
:1019100017061806991FF1CF869571056105089481
:101920000895E894BB2766277727CB0197F9089598
:10193000052E97FB1EF400940E94AF0C57FD07D0B4
:101940000E94C20C07FC03D04EF40C94AF0C5095CF
:101950004095309521953F4F4F4F5F4F089590959B
:101960008095709561957F4F8F4F9F4F08950E948E
:10197000E40CA59F900DB49F900DA49F800D911D28
:1019800011240895A1E21A2EAA1BBB1BFD010DC054
:10199000AA1FBB1FEE1FFF1FA217B307E407F5071F
:1019A00020F0A21BB30BE40BF50B661F771F881FFB
:1019B000991F1A9469F760957095809590959B0191
:1019C000AC01BD01CF010895A29FB001B39FC0013A
:1019D000A39F700D811D1124911DB29F700D811D5B
:1019E0001124911D08950E94070D0C945E0C0E9415
:1019F000570C58F00E94500C40F029F45F3F29F03A
:101A00000C94470C51110C94920C0C944D0C0E94A8
:101A10006F0C68F39923B1F3552391F3951B550B84
:101A2000BB27AA2762177307840738F09F5F5F4FB1
:101A3000220F331F441FAA1FA9F335D00E2E3AF0F0
:101A4000E0E832D091505040E695001CCAF72BD008
:101A5000FE2F29D0660F771F881FBB1F2617370759
:101A60004807AB07B0E809F0BB0B802DBF01FF278B
:101A700093585F4F3AF09E3F510578F00C94470C15
:101A80000C94920C5F3FE4F3983ED4F386957795DF
:101A90006795B795F7959F5FC9F7880F911D969544
:101AA000879597F90895E1E0660F771F881FBB1FA0
:101AB000621773078407BA0720F0621B730B840B4D
:101AC000BA0BEE1F88F7E09508950E94E40CB7FF6B
:101AD0000895821B930B0895EE0FFF1F0590F4915C
:081AE000E02D0994F894FFCFFA
:101AE800FF0C000D000000000000000000000000D6
:101AF80000000000000000000035018D00C20082D7
:0A1B080001F300D100E5000D0A0012
:107E0000112484B714BE81FFF0D085E080938100F7
:107E100082E08093C00088E18093C10086E0809377
:107E2000C20080E18093C4008EE0C9D0259A86E02C
:107E300020E33CEF91E0309385002093840096BBD3
:107E4000B09BFECF1D9AA8958150A9F7CC24DD24C4
:107E500088248394B5E0AB2EA1E19A2EF3E0BF2EE7
:107E6000A2D0813461F49FD0082FAFD0023811F036
:107E7000013811F484E001C083E08DD089C08234E0
:107E800011F484E103C0853419F485E0A6D080C0E4
:107E9000853579F488D0E82EFF2485D0082F10E0AE
:107EA000102F00270E291F29000F111F8ED06801E7
:107EB0006FC0863521F484E090D080E0DECF843638
:107EC00009F040C070D06FD0082F6DD080E0C81688
:107ED00080E7D80618F4F601B7BEE895C0E0D1E017
:107EE00062D089930C17E1F7F0E0CF16F0E7DF06D8
:107EF00018F0F601B7BEE89568D007B600FCFDCFD4
:107F0000A601A0E0B1E02C9130E011968C91119780
:107F100090E0982F8827822B932B1296FA010C0160
:107F200087BEE89511244E5F5F4FF1E0A038BF0790
:107F300051F7F601A7BEE89507B600FCFDCF97BE46
:107F4000E89526C08437B1F42ED02DD0F82E2BD052
:107F50003CD0F601EF2C8F010F5F1F4F84911BD097
:107F6000EA94F801C1F70894C11CD11CFA94CF0C13
:107F7000D11C0EC0853739F428D08EE10CD085E9AC
:107F80000AD08FE07ACF813511F488E018D01DD067
:107F900080E101D065CF982F8091C00085FFFCCF94
:107FA0009093C60008958091C00087FFFCCF809118
:107FB000C00084FD01C0A8958091C6000895E0E648
:107FC000F0E098E1908380830895EDDF803219F02E
:107FD00088E0F5DFFFCF84E1DECF1F93182FE3DFCA
:107FE0001150E9F7F2DF1F91089580E0E8DFEE27F6
:047FF000FF270994CA
:027FFE00040479
:0400000300007E007B
:00000001FF
